{
  "_format": "hh-sol-artifact-1",
  "contractName": "NFTContract",
  "sourceName": "contracts/NFTContract.sol",
  "abi": [
    {
      "inputs": [
        {
          "internalType": "string",
          "name": "_name",
          "type": "string"
        },
        {
          "internalType": "string",
          "name": "_symbol",
          "type": "string"
        }
      ],
      "stateMutability": "nonpayable",
      "type": "constructor"
    },
    {
      "inputs": [],
      "name": "NFT_ContractIsPaused",
      "type": "error"
    },
    {
      "inputs": [],
      "name": "NFT_ExceededMaxMintAmountPerTx",
      "type": "error"
    },
    {
      "inputs": [],
      "name": "NFT_ExceededMaxNftPerAddress",
      "type": "error"
    },
    {
      "inputs": [],
      "name": "NFT_InsufficientFunds",
      "type": "error"
    },
    {
      "inputs": [],
      "name": "NFT_InvalidMintAmount",
      "type": "error"
    },
    {
      "inputs": [],
      "name": "NFT_MaxSupplyExceeded",
      "type": "error"
    },
    {
      "inputs": [
        {
          "internalType": "uint256",
          "name": "tokenId",
          "type": "uint256"
        }
      ],
      "name": "NFT_QueryForNonExistentToken",
      "type": "error"
    },
    {
      "anonymous": false,
      "inputs": [
        {
          "indexed": true,
          "internalType": "address",
          "name": "owner",
          "type": "address"
        },
        {
          "indexed": true,
          "internalType": "address",
          "name": "approved",
          "type": "address"
        },
        {
          "indexed": true,
          "internalType": "uint256",
          "name": "tokenId",
          "type": "uint256"
        }
      ],
      "name": "Approval",
      "type": "event"
    },
    {
      "anonymous": false,
      "inputs": [
        {
          "indexed": true,
          "internalType": "address",
          "name": "owner",
          "type": "address"
        },
        {
          "indexed": true,
          "internalType": "address",
          "name": "operator",
          "type": "address"
        },
        {
          "indexed": false,
          "internalType": "bool",
          "name": "approved",
          "type": "bool"
        }
      ],
      "name": "ApprovalForAll",
      "type": "event"
    },
    {
      "anonymous": false,
      "inputs": [
        {
          "indexed": true,
          "internalType": "address",
          "name": "previousOwner",
          "type": "address"
        },
        {
          "indexed": true,
          "internalType": "address",
          "name": "newOwner",
          "type": "address"
        }
      ],
      "name": "OwnershipTransferred",
      "type": "event"
    },
    {
      "anonymous": false,
      "inputs": [
        {
          "indexed": true,
          "internalType": "address",
          "name": "from",
          "type": "address"
        },
        {
          "indexed": true,
          "internalType": "address",
          "name": "to",
          "type": "address"
        },
        {
          "indexed": true,
          "internalType": "uint256",
          "name": "tokenId",
          "type": "uint256"
        }
      ],
      "name": "Transfer",
      "type": "event"
    },
    {
      "inputs": [
        {
          "internalType": "address",
          "name": "",
          "type": "address"
        }
      ],
      "name": "addressMintedBalance",
      "outputs": [
        {
          "internalType": "uint256",
          "name": "",
          "type": "uint256"
        }
      ],
      "stateMutability": "view",
      "type": "function"
    },
    {
      "inputs": [
        {
          "internalType": "address",
          "name": "to",
          "type": "address"
        },
        {
          "internalType": "uint256",
          "name": "tokenId",
          "type": "uint256"
        }
      ],
      "name": "approve",
      "outputs": [],
      "stateMutability": "nonpayable",
      "type": "function"
    },
    {
      "inputs": [
        {
          "internalType": "address",
          "name": "owner",
          "type": "address"
        }
      ],
      "name": "balanceOf",
      "outputs": [
        {
          "internalType": "uint256",
          "name": "",
          "type": "uint256"
        }
      ],
      "stateMutability": "view",
      "type": "function"
    },
    {
      "inputs": [
        {
          "internalType": "address",
          "name": "",
          "type": "address"
        }
      ],
      "name": "balances",
      "outputs": [
        {
          "internalType": "uint256",
          "name": "",
          "type": "uint256"
        }
      ],
      "stateMutability": "view",
      "type": "function"
    },
    {
      "inputs": [],
      "name": "baseExtension",
      "outputs": [
        {
          "internalType": "string",
          "name": "",
          "type": "string"
        }
      ],
      "stateMutability": "view",
      "type": "function"
    },
    {
      "inputs": [],
      "name": "baseURI",
      "outputs": [
        {
          "internalType": "string",
          "name": "",
          "type": "string"
        }
      ],
      "stateMutability": "view",
      "type": "function"
    },
    {
      "inputs": [
        {
          "internalType": "uint256",
          "name": "tokenId",
          "type": "uint256"
        }
      ],
      "name": "getApproved",
      "outputs": [
        {
          "internalType": "address",
          "name": "",
          "type": "address"
        }
      ],
      "stateMutability": "view",
      "type": "function"
    },
    {
      "inputs": [],
      "name": "getBalance",
      "outputs": [
        {
          "internalType": "uint256",
          "name": "",
          "type": "uint256"
        }
      ],
      "stateMutability": "view",
      "type": "function"
    },
    {
      "inputs": [
        {
          "internalType": "address",
          "name": "owner",
          "type": "address"
        },
        {
          "internalType": "address",
          "name": "operator",
          "type": "address"
        }
      ],
      "name": "isApprovedForAll",
      "outputs": [
        {
          "internalType": "bool",
          "name": "",
          "type": "bool"
        }
      ],
      "stateMutability": "view",
      "type": "function"
    },
    {
      "inputs": [],
      "name": "maxMintAmountPerTx",
      "outputs": [
        {
          "internalType": "uint256",
          "name": "",
          "type": "uint256"
        }
      ],
      "stateMutability": "view",
      "type": "function"
    },
    {
      "inputs": [],
      "name": "maxSupply",
      "outputs": [
        {
          "internalType": "uint256",
          "name": "",
          "type": "uint256"
        }
      ],
      "stateMutability": "view",
      "type": "function"
    },
    {
      "inputs": [
        {
          "internalType": "uint256",
          "name": "_mintAmount",
          "type": "uint256"
        },
        {
          "internalType": "bool",
          "name": "_isOg",
          "type": "bool"
        },
        {
          "internalType": "bool",
          "name": "_isWhitelisted",
          "type": "bool"
        }
      ],
      "name": "mint",
      "outputs": [],
      "stateMutability": "payable",
      "type": "function"
    },
    {
      "inputs": [],
      "name": "name",
      "outputs": [
        {
          "internalType": "string",
          "name": "",
          "type": "string"
        }
      ],
      "stateMutability": "view",
      "type": "function"
    },
    {
      "inputs": [],
      "name": "nftPerAddressLimit",
      "outputs": [
        {
          "internalType": "uint256",
          "name": "",
          "type": "uint256"
        }
      ],
      "stateMutability": "view",
      "type": "function"
    },
    {
      "inputs": [],
      "name": "ogUserCost",
      "outputs": [
        {
          "internalType": "uint256",
          "name": "",
          "type": "uint256"
        }
      ],
      "stateMutability": "view",
      "type": "function"
    },
    {
      "inputs": [],
      "name": "owner",
      "outputs": [
        {
          "internalType": "address",
          "name": "",
          "type": "address"
        }
      ],
      "stateMutability": "view",
      "type": "function"
    },
    {
      "inputs": [
        {
          "internalType": "uint256",
          "name": "tokenId",
          "type": "uint256"
        }
      ],
      "name": "ownerOf",
      "outputs": [
        {
          "internalType": "address",
          "name": "",
          "type": "address"
        }
      ],
      "stateMutability": "view",
      "type": "function"
    },
    {
      "inputs": [
        {
          "internalType": "bool",
          "name": "_state",
          "type": "bool"
        }
      ],
      "name": "pause",
      "outputs": [],
      "stateMutability": "payable",
      "type": "function"
    },
    {
      "inputs": [],
      "name": "paused",
      "outputs": [
        {
          "internalType": "bool",
          "name": "",
          "type": "bool"
        }
      ],
      "stateMutability": "view",
      "type": "function"
    },
    {
      "inputs": [],
      "name": "renounceOwnership",
      "outputs": [],
      "stateMutability": "nonpayable",
      "type": "function"
    },
    {
      "inputs": [],
      "name": "revealed",
      "outputs": [
        {
          "internalType": "bool",
          "name": "",
          "type": "bool"
        }
      ],
      "stateMutability": "view",
      "type": "function"
    },
    {
      "inputs": [
        {
          "internalType": "address",
          "name": "from",
          "type": "address"
        },
        {
          "internalType": "address",
          "name": "to",
          "type": "address"
        },
        {
          "internalType": "uint256",
          "name": "tokenId",
          "type": "uint256"
        }
      ],
      "name": "safeTransferFrom",
      "outputs": [],
      "stateMutability": "nonpayable",
      "type": "function"
    },
    {
      "inputs": [
        {
          "internalType": "address",
          "name": "from",
          "type": "address"
        },
        {
          "internalType": "address",
          "name": "to",
          "type": "address"
        },
        {
          "internalType": "uint256",
          "name": "tokenId",
          "type": "uint256"
        },
        {
          "internalType": "bytes",
          "name": "data",
          "type": "bytes"
        }
      ],
      "name": "safeTransferFrom",
      "outputs": [],
      "stateMutability": "nonpayable",
      "type": "function"
    },
    {
      "inputs": [
        {
          "internalType": "address",
          "name": "operator",
          "type": "address"
        },
        {
          "internalType": "bool",
          "name": "approved",
          "type": "bool"
        }
      ],
      "name": "setApprovalForAll",
      "outputs": [],
      "stateMutability": "nonpayable",
      "type": "function"
    },
    {
      "inputs": [
        {
          "internalType": "string",
          "name": "_newBaseURI",
          "type": "string"
        }
      ],
      "name": "setBaseURI",
      "outputs": [],
      "stateMutability": "payable",
      "type": "function"
    },
    {
      "inputs": [
        {
          "internalType": "bytes4",
          "name": "interfaceId",
          "type": "bytes4"
        }
      ],
      "name": "supportsInterface",
      "outputs": [
        {
          "internalType": "bool",
          "name": "",
          "type": "bool"
        }
      ],
      "stateMutability": "view",
      "type": "function"
    },
    {
      "inputs": [],
      "name": "symbol",
      "outputs": [
        {
          "internalType": "string",
          "name": "",
          "type": "string"
        }
      ],
      "stateMutability": "view",
      "type": "function"
    },
    {
      "inputs": [
        {
          "internalType": "uint256",
          "name": "index",
          "type": "uint256"
        }
      ],
      "name": "tokenByIndex",
      "outputs": [
        {
          "internalType": "uint256",
          "name": "",
          "type": "uint256"
        }
      ],
      "stateMutability": "view",
      "type": "function"
    },
    {
      "inputs": [
        {
          "internalType": "address",
          "name": "owner",
          "type": "address"
        },
        {
          "internalType": "uint256",
          "name": "index",
          "type": "uint256"
        }
      ],
      "name": "tokenOfOwnerByIndex",
      "outputs": [
        {
          "internalType": "uint256",
          "name": "",
          "type": "uint256"
        }
      ],
      "stateMutability": "view",
      "type": "function"
    },
    {
      "inputs": [
        {
          "internalType": "uint256",
          "name": "tokenId",
          "type": "uint256"
        }
      ],
      "name": "tokenURI",
      "outputs": [
        {
          "internalType": "string",
          "name": "",
          "type": "string"
        }
      ],
      "stateMutability": "view",
      "type": "function"
    },
    {
      "inputs": [],
      "name": "totalBalance",
      "outputs": [
        {
          "internalType": "uint256",
          "name": "",
          "type": "uint256"
        }
      ],
      "stateMutability": "view",
      "type": "function"
    },
    {
      "inputs": [],
      "name": "totalSupply",
      "outputs": [
        {
          "internalType": "uint256",
          "name": "",
          "type": "uint256"
        }
      ],
      "stateMutability": "view",
      "type": "function"
    },
    {
      "inputs": [
        {
          "internalType": "address",
          "name": "from",
          "type": "address"
        },
        {
          "internalType": "address",
          "name": "to",
          "type": "address"
        },
        {
          "internalType": "uint256",
          "name": "tokenId",
          "type": "uint256"
        }
      ],
      "name": "transferFrom",
      "outputs": [],
      "stateMutability": "nonpayable",
      "type": "function"
    },
    {
      "inputs": [
        {
          "internalType": "address",
          "name": "newOwner",
          "type": "address"
        }
      ],
      "name": "transferOwnership",
      "outputs": [],
      "stateMutability": "nonpayable",
      "type": "function"
    },
    {
      "inputs": [
        {
          "internalType": "address",
          "name": "_owner",
          "type": "address"
        }
      ],
      "name": "walletOfOwner",
      "outputs": [
        {
          "internalType": "uint256[]",
          "name": "",
          "type": "uint256[]"
        }
      ],
      "stateMutability": "view",
      "type": "function"
    },
    {
      "inputs": [],
      "name": "whitelistMintEnabled",
      "outputs": [
        {
          "internalType": "bool",
          "name": "",
          "type": "bool"
        }
      ],
      "stateMutability": "view",
      "type": "function"
    },
    {
      "inputs": [],
      "name": "whitelistUserCost",
      "outputs": [
        {
          "internalType": "uint256",
          "name": "",
          "type": "uint256"
        }
      ],
      "stateMutability": "view",
      "type": "function"
    },
    {
      "inputs": [],
      "name": "withdraw",
      "outputs": [],
      "stateMutability": "payable",
      "type": "function"
    }
  ],
  "bytecode": "0x608060405260405180608001604052806051815260200162004b5960519139600b90816200002e91906200049d565b506040518060400160405280600581526020017f2e6a736f6e000000000000000000000000000000000000000000000000000000815250600c90816200007591906200049d565b50611518600d55665fec5b60ef8000600e5566670758aa7c8000600f55600260105560026011556000601260006101000a81548160ff0219169083151502179055506001601260016101000a81548160ff021916908315150217905550348015620000df57600080fd5b5060405162004baa38038062004baa8339818101604052810190620001059190620006e8565b818181600090816200011891906200049d565b5080600190816200012a91906200049d565b5050506200014d620001416200015560201b60201c565b6200015d60201b60201c565b50506200076d565b600033905090565b6000600a60009054906101000a900473ffffffffffffffffffffffffffffffffffffffff16905081600a60006101000a81548173ffffffffffffffffffffffffffffffffffffffff021916908373ffffffffffffffffffffffffffffffffffffffff1602179055508173ffffffffffffffffffffffffffffffffffffffff168173ffffffffffffffffffffffffffffffffffffffff167f8be0079c531659141344cd1fd0a4f28419497f9722a3daafe3b4186f6b6457e060405160405180910390a35050565b600081519050919050565b7f4e487b7100000000000000000000000000000000000000000000000000000000600052604160045260246000fd5b7f4e487b7100000000000000000000000000000000000000000000000000000000600052602260045260246000fd5b60006002820490506001821680620002a557607f821691505b602082108103620002bb57620002ba6200025d565b5b50919050565b60008190508160005260206000209050919050565b60006020601f8301049050919050565b600082821b905092915050565b600060088302620003257fffffffffffffffffffffffffffffffffffffffffffffffffffffffffffffffff82620002e6565b620003318683620002e6565b95508019841693508086168417925050509392505050565b6000819050919050565b6000819050919050565b60006200037e62000378620003728462000349565b62000353565b62000349565b9050919050565b6000819050919050565b6200039a836200035d565b620003b2620003a98262000385565b848454620002f3565b825550505050565b600090565b620003c9620003ba565b620003d68184846200038f565b505050565b5b81811015620003fe57620003f2600082620003bf565b600181019050620003dc565b5050565b601f8211156200044d576200041781620002c1565b6200042284620002d6565b8101602085101562000432578190505b6200044a6200044185620002d6565b830182620003db565b50505b505050565b600082821c905092915050565b6000620004726000198460080262000452565b1980831691505092915050565b60006200048d83836200045f565b9150826002028217905092915050565b620004a88262000223565b67ffffffffffffffff811115620004c457620004c36200022e565b5b620004d082546200028c565b620004dd82828562000402565b600060209050601f83116001811462000515576000841562000500578287015190505b6200050c85826200047f565b8655506200057c565b601f1984166200052586620002c1565b60005b828110156200054f5784890151825560018201915060208501945060208101905062000528565b868310156200056f57848901516200056b601f8916826200045f565b8355505b6001600288020188555050505b505050505050565b6000604051905090565b600080fd5b600080fd5b600080fd5b600080fd5b6000601f19601f8301169050919050565b620005be82620005a2565b810181811067ffffffffffffffff82111715620005e057620005df6200022e565b5b80604052505050565b6000620005f562000584565b9050620006038282620005b3565b919050565b600067ffffffffffffffff8211156200062657620006256200022e565b5b6200063182620005a2565b9050602081019050919050565b60005b838110156200065e57808201518184015260208101905062000641565b60008484015250505050565b6000620006816200067b8462000608565b620005e9565b905082815260208101848484011115620006a0576200069f6200059d565b5b620006ad8482856200063e565b509392505050565b600082601f830112620006cd57620006cc62000598565b5b8151620006df8482602086016200066a565b91505092915050565b600080604083850312156200070257620007016200058e565b5b600083015167ffffffffffffffff81111562000723576200072262000593565b5b6200073185828601620006b5565b925050602083015167ffffffffffffffff81111562000755576200075462000593565b5b6200076385828601620006b5565b9150509250929050565b6143dc806200077d6000396000f3fe6080604052600436106102255760003560e01c80636352211e11610123578063ad7a672f116100ab578063c89e9bec1161006f578063c89e9bec1461080c578063cdf7b4e814610837578063d5abeb0114610853578063e985e9c51461087e578063f2fde38b146108bb57610225565b8063ad7a672f14610725578063b88d4fde14610750578063ba7d2c7614610779578063c6682862146107a4578063c87b56dd146107cf57610225565b8063715018a6116100f2578063715018a6146106645780638da5cb5b1461067b57806394354fd0146106a657806395d89b41146106d1578063a22cb465146106fc57610225565b80636352211e146105945780636c0360eb146105d15780636caede3d146105fc57806370a082311461062757610225565b806327e235e3116101b1578063438b630011610175578063438b6300146104a85780634f6ccce7146104e5578063518302271461052257806355f804b31461054d5780635c975abb1461056957610225565b806327e235e3146103d05780632f745c591461040d57806333ee5dd41461044a5780633ccfd60b1461047557806342842e0e1461047f57610225565b8063095ea7b3116101f8578063095ea7b3146102eb57806312065fe01461031457806318160ddd1461033f57806318cae2691461036a57806323b872dd146103a757610225565b806301ffc9a71461022a57806302329a291461026757806306fdde0314610283578063081812fc146102ae575b600080fd5b34801561023657600080fd5b50610251600480360381019061024c9190612d95565b6108e4565b60405161025e9190612ddd565b60405180910390f35b610281600480360381019061027c9190612e24565b61095e565b005b34801561028f57600080fd5b50610298610983565b6040516102a59190612ee1565b60405180910390f35b3480156102ba57600080fd5b506102d560048036038101906102d09190612f39565b610a15565b6040516102e29190612fa7565b60405180910390f35b3480156102f757600080fd5b50610312600480360381019061030d9190612fee565b610a5b565b005b34801561032057600080fd5b50610329610b72565b604051610336919061303d565b60405180910390f35b34801561034b57600080fd5b50610354610bb9565b604051610361919061303d565b60405180910390f35b34801561037657600080fd5b50610391600480360381019061038c9190613058565b610bc6565b60405161039e919061303d565b60405180910390f35b3480156103b357600080fd5b506103ce60048036038101906103c99190613085565b610bde565b005b3480156103dc57600080fd5b506103f760048036038101906103f29190613058565b610c3e565b604051610404919061303d565b60405180910390f35b34801561041957600080fd5b50610434600480360381019061042f9190612fee565b610c56565b604051610441919061303d565b60405180910390f35b34801561045657600080fd5b5061045f610cfb565b60405161046c919061303d565b60405180910390f35b61047d610d01565b005b34801561048b57600080fd5b506104a660048036038101906104a19190613085565b610d52565b005b3480156104b457600080fd5b506104cf60048036038101906104ca9190613058565b610d72565b6040516104dc9190613196565b60405180910390f35b3480156104f157600080fd5b5061050c60048036038101906105079190612f39565b610e18565b604051610519919061303d565b60405180910390f35b34801561052e57600080fd5b50610537610e89565b6040516105449190612ddd565b60405180910390f35b610567600480360381019061056291906132ed565b610e9c565b005b34801561057557600080fd5b5061057e610eb7565b60405161058b9190612ddd565b60405180910390f35b3480156105a057600080fd5b506105bb60048036038101906105b69190612f39565b610eca565b6040516105c89190612fa7565b60405180910390f35b3480156105dd57600080fd5b506105e6610f50565b6040516105f39190612ee1565b60405180910390f35b34801561060857600080fd5b50610611610fde565b60405161061e9190612ddd565b60405180910390f35b34801561063357600080fd5b5061064e60048036038101906106499190613058565b610ff1565b60405161065b919061303d565b60405180910390f35b34801561067057600080fd5b506106796110a8565b005b34801561068757600080fd5b506106906110bc565b60405161069d9190612fa7565b60405180910390f35b3480156106b257600080fd5b506106bb6110e6565b6040516106c8919061303d565b60405180910390f35b3480156106dd57600080fd5b506106e66110ec565b6040516106f39190612ee1565b60405180910390f35b34801561070857600080fd5b50610723600480360381019061071e9190613336565b61117e565b005b34801561073157600080fd5b5061073a611194565b604051610747919061303d565b60405180910390f35b34801561075c57600080fd5b5061077760048036038101906107729190613417565b61119c565b005b34801561078557600080fd5b5061078e6111fe565b60405161079b919061303d565b60405180910390f35b3480156107b057600080fd5b506107b9611204565b6040516107c69190612ee1565b60405180910390f35b3480156107db57600080fd5b506107f660048036038101906107f19190612f39565b611292565b6040516108039190612ee1565b60405180910390f35b34801561081857600080fd5b5061082161133e565b60405161082e919061303d565b60405180910390f35b610851600480360381019061084c919061349a565b611344565b005b34801561085f57600080fd5b50610868611619565b604051610875919061303d565b60405180910390f35b34801561088a57600080fd5b506108a560048036038101906108a091906134ed565b61161f565b6040516108b29190612ddd565b60405180910390f35b3480156108c757600080fd5b506108e260048036038101906108dd9190613058565b6116b3565b005b60007f780e9d63000000000000000000000000000000000000000000000000000000007bffffffffffffffffffffffffffffffffffffffffffffffffffffffff1916827bffffffffffffffffffffffffffffffffffffffffffffffffffffffff19161480610957575061095682611736565b5b9050919050565b610966611818565b80601260006101000a81548160ff02191690831515021790555050565b6060600080546109929061355c565b80601f01602080910402602001604051908101604052809291908181526020018280546109be9061355c565b8015610a0b5780601f106109e057610100808354040283529160200191610a0b565b820191906000526020600020905b8154815290600101906020018083116109ee57829003601f168201915b5050505050905090565b6000610a2082611896565b6004600083815260200190815260200160002060009054906101000a900473ffffffffffffffffffffffffffffffffffffffff169050919050565b6000610a6682610eca565b90508073ffffffffffffffffffffffffffffffffffffffff168373ffffffffffffffffffffffffffffffffffffffff1603610ad6576040517f08c379a0000000000000000000000000000000000000000000000000000000008152600401610acd906135ff565b60405180910390fd5b8073ffffffffffffffffffffffffffffffffffffffff16610af56118e1565b73ffffffffffffffffffffffffffffffffffffffff161480610b245750610b2381610b1e6118e1565b61161f565b5b610b63576040517f08c379a0000000000000000000000000000000000000000000000000000000008152600401610b5a90613691565b60405180910390fd5b610b6d83836118e9565b505050565b6000601460003373ffffffffffffffffffffffffffffffffffffffff1673ffffffffffffffffffffffffffffffffffffffff16815260200190815260200160002054905090565b6000600880549050905090565b60136020528060005260406000206000915090505481565b610bef610be96118e1565b826119a2565b610c2e576040517f08c379a0000000000000000000000000000000000000000000000000000000008152600401610c2590613723565b60405180910390fd5b610c39838383611a37565b505050565b60146020528060005260406000206000915090505481565b6000610c6183610ff1565b8210610ca2576040517f08c379a0000000000000000000000000000000000000000000000000000000008152600401610c99906137b5565b60405180910390fd5b600660008473ffffffffffffffffffffffffffffffffffffffff1673ffffffffffffffffffffffffffffffffffffffff168152602001908152602001600020600083815260200190815260200160002054905092915050565b600f5481565b610d09611818565b3373ffffffffffffffffffffffffffffffffffffffff166108fc479081150290604051600060405180830381858888f19350505050158015610d4f573d6000803e3d6000fd5b50565b610d6d8383836040518060200160405280600081525061119c565b505050565b60606000610d7f83610ff1565b905060008167ffffffffffffffff811115610d9d57610d9c6131c2565b5b604051908082528060200260200182016040528015610dcb5781602001602082028036833780820191505090505b50905060005b82811015610e0d57610de38582610c56565b828281518110610df657610df56137d5565b5b602002602001018181525050806001019050610dd1565b508092505050919050565b6000610e22610bb9565b8210610e63576040517f08c379a0000000000000000000000000000000000000000000000000000000008152600401610e5a90613876565b60405180910390fd5b60088281548110610e7757610e766137d5565b5b90600052602060002001549050919050565b601260019054906101000a900460ff1681565b610ea4611818565b80600b9081610eb39190613a42565b5050565b601260009054906101000a900460ff1681565b600080610ed683611d30565b9050600073ffffffffffffffffffffffffffffffffffffffff168173ffffffffffffffffffffffffffffffffffffffff1603610f47576040517f08c379a0000000000000000000000000000000000000000000000000000000008152600401610f3e90613b60565b60405180910390fd5b80915050919050565b600b8054610f5d9061355c565b80601f0160208091040260200160405190810160405280929190818152602001828054610f899061355c565b8015610fd65780601f10610fab57610100808354040283529160200191610fd6565b820191906000526020600020905b815481529060010190602001808311610fb957829003601f168201915b505050505081565b601260029054906101000a900460ff1681565b60008073ffffffffffffffffffffffffffffffffffffffff168273ffffffffffffffffffffffffffffffffffffffff1603611061576040517f08c379a000000000000000000000000000000000000000000000000000000000815260040161105890613bf2565b60405180910390fd5b600360008373ffffffffffffffffffffffffffffffffffffffff1673ffffffffffffffffffffffffffffffffffffffff168152602001908152602001600020549050919050565b6110b0611818565b6110ba6000611d6d565b565b6000600a60009054906101000a900473ffffffffffffffffffffffffffffffffffffffff16905090565b60105481565b6060600180546110fb9061355c565b80601f01602080910402602001604051908101604052809291908181526020018280546111279061355c565b80156111745780601f1061114957610100808354040283529160200191611174565b820191906000526020600020905b81548152906001019060200180831161115757829003601f168201915b5050505050905090565b6111906111896118e1565b8383611e33565b5050565b600047905090565b6111ad6111a76118e1565b836119a2565b6111ec576040517f08c379a00000000000000000000000000000000000000000000000000000000081526004016111e390613723565b60405180910390fd5b6111f884848484611f9f565b50505050565b60115481565b600c80546112119061355c565b80601f016020809104026020016040519081016040528092919081815260200182805461123d9061355c565b801561128a5780601f1061125f5761010080835404028352916020019161128a565b820191906000526020600020905b81548152906001019060200180831161126d57829003601f168201915b505050505081565b606061129d82611ffb565b6112de57816040517f6a197d0a0000000000000000000000000000000000000000000000000000000081526004016112d5919061303d565b60405180910390fd5b60006112e861203c565b905060008151116113085760405180602001604052806000815250611336565b80611312846120ce565b600c60405160200161132693929190613cd1565b6040516020818303038152906040525b915050919050565b600e5481565b601260009054906101000a900460ff161561138b576040517fdcbe88e300000000000000000000000000000000000000000000000000000000815260040160405180910390fd5b600083036113c5576040517f1e2125a200000000000000000000000000000000000000000000000000000000815260040160405180910390fd5b601054831115611401576040517fd6350ba300000000000000000000000000000000000000000000000000000000815260040160405180910390fd5b600061140b610bb9565b9050600d54848261141c9190613d31565b1115611454576040517f656a44e300000000000000000000000000000000000000000000000000000000815260040160405180910390fd5b600061145e6110bc565b73ffffffffffffffffffffffffffffffffffffffff163373ffffffffffffffffffffffffffffffffffffffff16146115e35760011515841515036114a657600e5490506114ac565b600f5490505b84816114b89190613d65565b3410156114f1576040517f15ff4aa700000000000000000000000000000000000000000000000000000000815260040160405180910390fd5b6000601360003373ffffffffffffffffffffffffffffffffffffffff1673ffffffffffffffffffffffffffffffffffffffff16815260200190815260200160002054905060115486826115449190613d31565b1180156115645750600115158515151480611563575060011515841515145b5b1561159b576040517f278157d600000000000000000000000000000000000000000000000000000000815260040160405180910390fd5b858101601360003373ffffffffffffffffffffffffffffffffffffffff1673ffffffffffffffffffffffffffffffffffffffff16815260200190815260200160002081905550505b6000600190505b858111611611576116063382856116019190613d31565b61219c565b8060010190506115ea565b505050505050565b600d5481565b6000600560008473ffffffffffffffffffffffffffffffffffffffff1673ffffffffffffffffffffffffffffffffffffffff16815260200190815260200160002060008373ffffffffffffffffffffffffffffffffffffffff1673ffffffffffffffffffffffffffffffffffffffff16815260200190815260200160002060009054906101000a900460ff16905092915050565b6116bb611818565b600073ffffffffffffffffffffffffffffffffffffffff168173ffffffffffffffffffffffffffffffffffffffff160361172a576040517f08c379a000000000000000000000000000000000000000000000000000000000815260040161172190613e19565b60405180910390fd5b61173381611d6d565b50565b60007f80ac58cd000000000000000000000000000000000000000000000000000000007bffffffffffffffffffffffffffffffffffffffffffffffffffffffff1916827bffffffffffffffffffffffffffffffffffffffffffffffffffffffff1916148061180157507f5b5e139f000000000000000000000000000000000000000000000000000000007bffffffffffffffffffffffffffffffffffffffffffffffffffffffff1916827bffffffffffffffffffffffffffffffffffffffffffffffffffffffff1916145b806118115750611810826121ba565b5b9050919050565b6118206118e1565b73ffffffffffffffffffffffffffffffffffffffff1661183e6110bc565b73ffffffffffffffffffffffffffffffffffffffff1614611894576040517f08c379a000000000000000000000000000000000000000000000000000000000815260040161188b90613e85565b60405180910390fd5b565b61189f81611ffb565b6118de576040517f08c379a00000000000000000000000000000000000000000000000000000000081526004016118d590613b60565b60405180910390fd5b50565b600033905090565b816004600083815260200190815260200160002060006101000a81548173ffffffffffffffffffffffffffffffffffffffff021916908373ffffffffffffffffffffffffffffffffffffffff160217905550808273ffffffffffffffffffffffffffffffffffffffff1661195c83610eca565b73ffffffffffffffffffffffffffffffffffffffff167f8c5be1e5ebec7d5bd14f71427d1e84f3dd0314c0f7b2291e5b200ac8c7c3b92560405160405180910390a45050565b6000806119ae83610eca565b90508073ffffffffffffffffffffffffffffffffffffffff168473ffffffffffffffffffffffffffffffffffffffff1614806119f057506119ef818561161f565b5b80611a2e57508373ffffffffffffffffffffffffffffffffffffffff16611a1684610a15565b73ffffffffffffffffffffffffffffffffffffffff16145b91505092915050565b8273ffffffffffffffffffffffffffffffffffffffff16611a5782610eca565b73ffffffffffffffffffffffffffffffffffffffff1614611aad576040517f08c379a0000000000000000000000000000000000000000000000000000000008152600401611aa490613f17565b60405180910390fd5b600073ffffffffffffffffffffffffffffffffffffffff168273ffffffffffffffffffffffffffffffffffffffff1603611b1c576040517f08c379a0000000000000000000000000000000000000000000000000000000008152600401611b1390613fa9565b60405180910390fd5b611b298383836001612224565b8273ffffffffffffffffffffffffffffffffffffffff16611b4982610eca565b73ffffffffffffffffffffffffffffffffffffffff1614611b9f576040517f08c379a0000000000000000000000000000000000000000000000000000000008152600401611b9690613f17565b60405180910390fd5b6004600082815260200190815260200160002060006101000a81549073ffffffffffffffffffffffffffffffffffffffff02191690556001600360008573ffffffffffffffffffffffffffffffffffffffff1673ffffffffffffffffffffffffffffffffffffffff168152602001908152602001600020600082825403925050819055506001600360008473ffffffffffffffffffffffffffffffffffffffff1673ffffffffffffffffffffffffffffffffffffffff16815260200190815260200160002060008282540192505081905550816002600083815260200190815260200160002060006101000a81548173ffffffffffffffffffffffffffffffffffffffff021916908373ffffffffffffffffffffffffffffffffffffffff160217905550808273ffffffffffffffffffffffffffffffffffffffff168473ffffffffffffffffffffffffffffffffffffffff167fddf252ad1be2c89b69c2b068fc378daa952ba7f163c4a11628f55a4df523b3ef60405160405180910390a4611d2b8383836001612382565b505050565b60006002600083815260200190815260200160002060009054906101000a900473ffffffffffffffffffffffffffffffffffffffff169050919050565b6000600a60009054906101000a900473ffffffffffffffffffffffffffffffffffffffff16905081600a60006101000a81548173ffffffffffffffffffffffffffffffffffffffff021916908373ffffffffffffffffffffffffffffffffffffffff1602179055508173ffffffffffffffffffffffffffffffffffffffff168173ffffffffffffffffffffffffffffffffffffffff167f8be0079c531659141344cd1fd0a4f28419497f9722a3daafe3b4186f6b6457e060405160405180910390a35050565b8173ffffffffffffffffffffffffffffffffffffffff168373ffffffffffffffffffffffffffffffffffffffff1603611ea1576040517f08c379a0000000000000000000000000000000000000000000000000000000008152600401611e9890614015565b60405180910390fd5b80600560008573ffffffffffffffffffffffffffffffffffffffff1673ffffffffffffffffffffffffffffffffffffffff16815260200190815260200160002060008473ffffffffffffffffffffffffffffffffffffffff1673ffffffffffffffffffffffffffffffffffffffff16815260200190815260200160002060006101000a81548160ff0219169083151502179055508173ffffffffffffffffffffffffffffffffffffffff168373ffffffffffffffffffffffffffffffffffffffff167f17307eab39ab6107e8899845ad3d59bd9653f200f220920489ca2b5937696c3183604051611f929190612ddd565b60405180910390a3505050565b611faa848484611a37565b611fb684848484612388565b611ff5576040517f08c379a0000000000000000000000000000000000000000000000000000000008152600401611fec906140a7565b60405180910390fd5b50505050565b60008073ffffffffffffffffffffffffffffffffffffffff1661201d83611d30565b73ffffffffffffffffffffffffffffffffffffffff1614159050919050565b6060600b805461204b9061355c565b80601f01602080910402602001604051908101604052809291908181526020018280546120779061355c565b80156120c45780601f10612099576101008083540402835291602001916120c4565b820191906000526020600020905b8154815290600101906020018083116120a757829003601f168201915b5050505050905090565b6060600060016120dd8461250f565b01905060008167ffffffffffffffff8111156120fc576120fb6131c2565b5b6040519080825280601f01601f19166020018201604052801561212e5781602001600182028036833780820191505090505b509050600082602001820190505b600115612191578080600190039150507f3031323334353637383961626364656600000000000000000000000000000000600a86061a8153600a8581612185576121846140c7565b5b0494506000850361213c575b819350505050919050565b6121b6828260405180602001604052806000815250612662565b5050565b60007f01ffc9a7000000000000000000000000000000000000000000000000000000007bffffffffffffffffffffffffffffffffffffffffffffffffffffffff1916827bffffffffffffffffffffffffffffffffffffffffffffffffffffffff1916149050919050565b612230848484846126bd565b6001811115612274576040517f08c379a000000000000000000000000000000000000000000000000000000000815260040161226b90614168565b60405180910390fd5b6000829050600073ffffffffffffffffffffffffffffffffffffffff168573ffffffffffffffffffffffffffffffffffffffff16036122bb576122b6816127e3565b6122fa565b8373ffffffffffffffffffffffffffffffffffffffff168573ffffffffffffffffffffffffffffffffffffffff16146122f9576122f8858261282c565b5b5b600073ffffffffffffffffffffffffffffffffffffffff168473ffffffffffffffffffffffffffffffffffffffff160361233c5761233781612999565b61237b565b8473ffffffffffffffffffffffffffffffffffffffff168473ffffffffffffffffffffffffffffffffffffffff161461237a576123798482612a6a565b5b5b5050505050565b50505050565b60006123a98473ffffffffffffffffffffffffffffffffffffffff16612ae9565b15612502578373ffffffffffffffffffffffffffffffffffffffff1663150b7a026123d26118e1565b8786866040518563ffffffff1660e01b81526004016123f494939291906141dd565b6020604051808303816000875af192505050801561243057506040513d601f19601f8201168201806040525081019061242d919061423e565b60015b6124b2573d8060008114612460576040519150601f19603f3d011682016040523d82523d6000602084013e612465565b606091505b5060008151036124aa576040517f08c379a00000000000000000000000000000000000000000000000000000000081526004016124a1906140a7565b60405180910390fd5b805181602001fd5b63150b7a0260e01b7bffffffffffffffffffffffffffffffffffffffffffffffffffffffff1916817bffffffffffffffffffffffffffffffffffffffffffffffffffffffff191614915050612507565b600190505b949350505050565b600080600090507a184f03e93ff9f4daa797ed6e38ed64bf6a1f010000000000000000831061256d577a184f03e93ff9f4daa797ed6e38ed64bf6a1f0100000000000000008381612563576125626140c7565b5b0492506040810190505b6d04ee2d6d415b85acef810000000083106125aa576d04ee2d6d415b85acef810000000083816125a05761259f6140c7565b5b0492506020810190505b662386f26fc1000083106125d957662386f26fc1000083816125cf576125ce6140c7565b5b0492506010810190505b6305f5e1008310612602576305f5e10083816125f8576125f76140c7565b5b0492506008810190505b612710831061262757612710838161261d5761261c6140c7565b5b0492506004810190505b6064831061264a57606483816126405761263f6140c7565b5b0492506002810190505b600a8310612659576001810190505b80915050919050565b61266c8383612b0c565b6126796000848484612388565b6126b8576040517f08c379a00000000000000000000000000000000000000000000000000000000081526004016126af906140a7565b60405180910390fd5b505050565b60018111156127dd57600073ffffffffffffffffffffffffffffffffffffffff168473ffffffffffffffffffffffffffffffffffffffff16146127515780600360008673ffffffffffffffffffffffffffffffffffffffff1673ffffffffffffffffffffffffffffffffffffffff1681526020019081526020016000206000828254612749919061426b565b925050819055505b600073ffffffffffffffffffffffffffffffffffffffff168373ffffffffffffffffffffffffffffffffffffffff16146127dc5780600360008573ffffffffffffffffffffffffffffffffffffffff1673ffffffffffffffffffffffffffffffffffffffff16815260200190815260200160002060008282546127d49190613d31565b925050819055505b5b50505050565b6008805490506009600083815260200190815260200160002081905550600881908060018154018082558091505060019003906000526020600020016000909190919091505550565b6000600161283984610ff1565b612843919061426b565b9050600060076000848152602001908152602001600020549050818114612928576000600660008673ffffffffffffffffffffffffffffffffffffffff1673ffffffffffffffffffffffffffffffffffffffff168152602001908152602001600020600084815260200190815260200160002054905080600660008773ffffffffffffffffffffffffffffffffffffffff1673ffffffffffffffffffffffffffffffffffffffff168152602001908152602001600020600084815260200190815260200160002081905550816007600083815260200190815260200160002081905550505b6007600084815260200190815260200160002060009055600660008573ffffffffffffffffffffffffffffffffffffffff1673ffffffffffffffffffffffffffffffffffffffff16815260200190815260200160002060008381526020019081526020016000206000905550505050565b600060016008805490506129ad919061426b565b90506000600960008481526020019081526020016000205490506000600883815481106129dd576129dc6137d5565b5b9060005260206000200154905080600883815481106129ff576129fe6137d5565b5b906000526020600020018190555081600960008381526020019081526020016000208190555060096000858152602001908152602001600020600090556008805480612a4e57612a4d61429f565b5b6001900381819060005260206000200160009055905550505050565b6000612a7583610ff1565b905081600660008573ffffffffffffffffffffffffffffffffffffffff1673ffffffffffffffffffffffffffffffffffffffff168152602001908152602001600020600083815260200190815260200160002081905550806007600084815260200190815260200160002081905550505050565b6000808273ffffffffffffffffffffffffffffffffffffffff163b119050919050565b600073ffffffffffffffffffffffffffffffffffffffff168273ffffffffffffffffffffffffffffffffffffffff1603612b7b576040517f08c379a0000000000000000000000000000000000000000000000000000000008152600401612b729061431a565b60405180910390fd5b612b8481611ffb565b15612bc4576040517f08c379a0000000000000000000000000000000000000000000000000000000008152600401612bbb90614386565b60405180910390fd5b612bd2600083836001612224565b612bdb81611ffb565b15612c1b576040517f08c379a0000000000000000000000000000000000000000000000000000000008152600401612c1290614386565b60405180910390fd5b6001600360008473ffffffffffffffffffffffffffffffffffffffff1673ffffffffffffffffffffffffffffffffffffffff16815260200190815260200160002060008282540192505081905550816002600083815260200190815260200160002060006101000a81548173ffffffffffffffffffffffffffffffffffffffff021916908373ffffffffffffffffffffffffffffffffffffffff160217905550808273ffffffffffffffffffffffffffffffffffffffff16600073ffffffffffffffffffffffffffffffffffffffff167fddf252ad1be2c89b69c2b068fc378daa952ba7f163c4a11628f55a4df523b3ef60405160405180910390a4612d25600083836001612382565b5050565b6000604051905090565b600080fd5b600080fd5b60007fffffffff0000000000000000000000000000000000000000000000000000000082169050919050565b612d7281612d3d565b8114612d7d57600080fd5b50565b600081359050612d8f81612d69565b92915050565b600060208284031215612dab57612daa612d33565b5b6000612db984828501612d80565b91505092915050565b60008115159050919050565b612dd781612dc2565b82525050565b6000602082019050612df26000830184612dce565b92915050565b612e0181612dc2565b8114612e0c57600080fd5b50565b600081359050612e1e81612df8565b92915050565b600060208284031215612e3a57612e39612d33565b5b6000612e4884828501612e0f565b91505092915050565b600081519050919050565b600082825260208201905092915050565b60005b83811015612e8b578082015181840152602081019050612e70565b60008484015250505050565b6000601f19601f8301169050919050565b6000612eb382612e51565b612ebd8185612e5c565b9350612ecd818560208601612e6d565b612ed681612e97565b840191505092915050565b60006020820190508181036000830152612efb8184612ea8565b905092915050565b6000819050919050565b612f1681612f03565b8114612f2157600080fd5b50565b600081359050612f3381612f0d565b92915050565b600060208284031215612f4f57612f4e612d33565b5b6000612f5d84828501612f24565b91505092915050565b600073ffffffffffffffffffffffffffffffffffffffff82169050919050565b6000612f9182612f66565b9050919050565b612fa181612f86565b82525050565b6000602082019050612fbc6000830184612f98565b92915050565b612fcb81612f86565b8114612fd657600080fd5b50565b600081359050612fe881612fc2565b92915050565b6000806040838503121561300557613004612d33565b5b600061301385828601612fd9565b925050602061302485828601612f24565b9150509250929050565b61303781612f03565b82525050565b6000602082019050613052600083018461302e565b92915050565b60006020828403121561306e5761306d612d33565b5b600061307c84828501612fd9565b91505092915050565b60008060006060848603121561309e5761309d612d33565b5b60006130ac86828701612fd9565b93505060206130bd86828701612fd9565b92505060406130ce86828701612f24565b9150509250925092565b600081519050919050565b600082825260208201905092915050565b6000819050602082019050919050565b61310d81612f03565b82525050565b600061311f8383613104565b60208301905092915050565b6000602082019050919050565b6000613143826130d8565b61314d81856130e3565b9350613158836130f4565b8060005b838110156131895781516131708882613113565b975061317b8361312b565b92505060018101905061315c565b5085935050505092915050565b600060208201905081810360008301526131b08184613138565b905092915050565b600080fd5b600080fd5b7f4e487b7100000000000000000000000000000000000000000000000000000000600052604160045260246000fd5b6131fa82612e97565b810181811067ffffffffffffffff82111715613219576132186131c2565b5b80604052505050565b600061322c612d29565b905061323882826131f1565b919050565b600067ffffffffffffffff821115613258576132576131c2565b5b61326182612e97565b9050602081019050919050565b82818337600083830152505050565b600061329061328b8461323d565b613222565b9050828152602081018484840111156132ac576132ab6131bd565b5b6132b784828561326e565b509392505050565b600082601f8301126132d4576132d36131b8565b5b81356132e484826020860161327d565b91505092915050565b60006020828403121561330357613302612d33565b5b600082013567ffffffffffffffff81111561332157613320612d38565b5b61332d848285016132bf565b91505092915050565b6000806040838503121561334d5761334c612d33565b5b600061335b85828601612fd9565b925050602061336c85828601612e0f565b9150509250929050565b600067ffffffffffffffff821115613391576133906131c2565b5b61339a82612e97565b9050602081019050919050565b60006133ba6133b584613376565b613222565b9050828152602081018484840111156133d6576133d56131bd565b5b6133e184828561326e565b509392505050565b600082601f8301126133fe576133fd6131b8565b5b813561340e8482602086016133a7565b91505092915050565b6000806000806080858703121561343157613430612d33565b5b600061343f87828801612fd9565b945050602061345087828801612fd9565b935050604061346187828801612f24565b925050606085013567ffffffffffffffff81111561348257613481612d38565b5b61348e878288016133e9565b91505092959194509250565b6000806000606084860312156134b3576134b2612d33565b5b60006134c186828701612f24565b93505060206134d286828701612e0f565b92505060406134e386828701612e0f565b9150509250925092565b6000806040838503121561350457613503612d33565b5b600061351285828601612fd9565b925050602061352385828601612fd9565b9150509250929050565b7f4e487b7100000000000000000000000000000000000000000000000000000000600052602260045260246000fd5b6000600282049050600182168061357457607f821691505b6020821081036135875761358661352d565b5b50919050565b7f4552433732313a20617070726f76616c20746f2063757272656e74206f776e6560008201527f7200000000000000000000000000000000000000000000000000000000000000602082015250565b60006135e9602183612e5c565b91506135f48261358d565b604082019050919050565b60006020820190508181036000830152613618816135dc565b9050919050565b7f4552433732313a20617070726f76652063616c6c6572206973206e6f7420746f60008201527f6b656e206f776e6572206f7220617070726f76656420666f7220616c6c000000602082015250565b600061367b603d83612e5c565b91506136868261361f565b604082019050919050565b600060208201905081810360008301526136aa8161366e565b9050919050565b7f4552433732313a2063616c6c6572206973206e6f7420746f6b656e206f776e6560008201527f72206f7220617070726f76656400000000000000000000000000000000000000602082015250565b600061370d602d83612e5c565b9150613718826136b1565b604082019050919050565b6000602082019050818103600083015261373c81613700565b9050919050565b7f455243373231456e756d657261626c653a206f776e657220696e646578206f7560008201527f74206f6620626f756e6473000000000000000000000000000000000000000000602082015250565b600061379f602b83612e5c565b91506137aa82613743565b604082019050919050565b600060208201905081810360008301526137ce81613792565b9050919050565b7f4e487b7100000000000000000000000000000000000000000000000000000000600052603260045260246000fd5b7f455243373231456e756d657261626c653a20676c6f62616c20696e646578206f60008201527f7574206f6620626f756e64730000000000000000000000000000000000000000602082015250565b6000613860602c83612e5c565b915061386b82613804565b604082019050919050565b6000602082019050818103600083015261388f81613853565b9050919050565b60008190508160005260206000209050919050565b60006020601f8301049050919050565b600082821b905092915050565b6000600883026138f87fffffffffffffffffffffffffffffffffffffffffffffffffffffffffffffffff826138bb565b61390286836138bb565b95508019841693508086168417925050509392505050565b6000819050919050565b600061393f61393a61393584612f03565b61391a565b612f03565b9050919050565b6000819050919050565b61395983613924565b61396d61396582613946565b8484546138c8565b825550505050565b600090565b613982613975565b61398d818484613950565b505050565b5b818110156139b1576139a660008261397a565b600181019050613993565b5050565b601f8211156139f6576139c781613896565b6139d0846138ab565b810160208510156139df578190505b6139f36139eb856138ab565b830182613992565b50505b505050565b600082821c905092915050565b6000613a19600019846008026139fb565b1980831691505092915050565b6000613a328383613a08565b9150826002028217905092915050565b613a4b82612e51565b67ffffffffffffffff811115613a6457613a636131c2565b5b613a6e825461355c565b613a798282856139b5565b600060209050601f831160018114613aac5760008415613a9a578287015190505b613aa48582613a26565b865550613b0c565b601f198416613aba86613896565b60005b82811015613ae257848901518255600182019150602085019450602081019050613abd565b86831015613aff5784890151613afb601f891682613a08565b8355505b6001600288020188555050505b505050505050565b7f4552433732313a20696e76616c696420746f6b656e2049440000000000000000600082015250565b6000613b4a601883612e5c565b9150613b5582613b14565b602082019050919050565b60006020820190508181036000830152613b7981613b3d565b9050919050565b7f4552433732313a2061646472657373207a65726f206973206e6f74206120766160008201527f6c6964206f776e65720000000000000000000000000000000000000000000000602082015250565b6000613bdc602983612e5c565b9150613be782613b80565b604082019050919050565b60006020820190508181036000830152613c0b81613bcf565b9050919050565b600081905092915050565b6000613c2882612e51565b613c328185613c12565b9350613c42818560208601612e6d565b80840191505092915050565b60008154613c5b8161355c565b613c658186613c12565b94506001821660008114613c805760018114613c9557613cc8565b60ff1983168652811515820286019350613cc8565b613c9e85613896565b60005b83811015613cc057815481890152600182019150602081019050613ca1565b838801955050505b50505092915050565b6000613cdd8286613c1d565b9150613ce98285613c1d565b9150613cf58284613c4e565b9150819050949350505050565b7f4e487b7100000000000000000000000000000000000000000000000000000000600052601160045260246000fd5b6000613d3c82612f03565b9150613d4783612f03565b9250828201905080821115613d5f57613d5e613d02565b5b92915050565b6000613d7082612f03565b9150613d7b83612f03565b9250828202613d8981612f03565b91508282048414831517613da057613d9f613d02565b5b5092915050565b7f4f776e61626c653a206e6577206f776e657220697320746865207a65726f206160008201527f6464726573730000000000000000000000000000000000000000000000000000602082015250565b6000613e03602683612e5c565b9150613e0e82613da7565b604082019050919050565b60006020820190508181036000830152613e3281613df6565b9050919050565b7f4f776e61626c653a2063616c6c6572206973206e6f7420746865206f776e6572600082015250565b6000613e6f602083612e5c565b9150613e7a82613e39565b602082019050919050565b60006020820190508181036000830152613e9e81613e62565b9050919050565b7f4552433732313a207472616e736665722066726f6d20696e636f72726563742060008201527f6f776e6572000000000000000000000000000000000000000000000000000000602082015250565b6000613f01602583612e5c565b9150613f0c82613ea5565b604082019050919050565b60006020820190508181036000830152613f3081613ef4565b9050919050565b7f4552433732313a207472616e7366657220746f20746865207a65726f2061646460008201527f7265737300000000000000000000000000000000000000000000000000000000602082015250565b6000613f93602483612e5c565b9150613f9e82613f37565b604082019050919050565b60006020820190508181036000830152613fc281613f86565b9050919050565b7f4552433732313a20617070726f766520746f2063616c6c657200000000000000600082015250565b6000613fff601983612e5c565b915061400a82613fc9565b602082019050919050565b6000602082019050818103600083015261402e81613ff2565b9050919050565b7f4552433732313a207472616e7366657220746f206e6f6e20455243373231526560008201527f63656976657220696d706c656d656e7465720000000000000000000000000000602082015250565b6000614091603283612e5c565b915061409c82614035565b604082019050919050565b600060208201905081810360008301526140c081614084565b9050919050565b7f4e487b7100000000000000000000000000000000000000000000000000000000600052601260045260246000fd5b7f455243373231456e756d657261626c653a20636f6e736563757469766520747260008201527f616e7366657273206e6f7420737570706f727465640000000000000000000000602082015250565b6000614152603583612e5c565b915061415d826140f6565b604082019050919050565b6000602082019050818103600083015261418181614145565b9050919050565b600081519050919050565b600082825260208201905092915050565b60006141af82614188565b6141b98185614193565b93506141c9818560208601612e6d565b6141d281612e97565b840191505092915050565b60006080820190506141f26000830187612f98565b6141ff6020830186612f98565b61420c604083018561302e565b818103606083015261421e81846141a4565b905095945050505050565b60008151905061423881612d69565b92915050565b60006020828403121561425457614253612d33565b5b600061426284828501614229565b91505092915050565b600061427682612f03565b915061428183612f03565b925082820390508181111561429957614298613d02565b5b92915050565b7f4e487b7100000000000000000000000000000000000000000000000000000000600052603160045260246000fd5b7f4552433732313a206d696e7420746f20746865207a65726f2061646472657373600082015250565b6000614304602083612e5c565b915061430f826142ce565b602082019050919050565b60006020820190508181036000830152614333816142f7565b9050919050565b7f4552433732313a20746f6b656e20616c7265616479206d696e74656400000000600082015250565b6000614370601c83612e5c565b915061437b8261433a565b602082019050919050565b6000602082019050818103600083015261439f81614363565b905091905056fea26469706673582212201132c0afdae0f29f4e8b79f75e66b8299fb50d70476f7e0758dedda8b7c3135c64736f6c6343000811003368747470733a2f2f676174657761792e70696e6174612e636c6f75642f697066732f516d54487a4e6e5335756b6b6f414b4e517645476837595874646b59744c763251316f6268576b554871554878792f",
  "linkReferences": {},
  "deployedLinkReferences": {}
}