{
  "_format": "hh-sol-artifact-1",
  "contractName": "NFTContract",
  "sourceName": "contracts/NFTContract.sol",
  "abi": [
    {
      "inputs": [
        {
          "internalType": "string",
          "name": "_name",
          "type": "string"
        },
        {
          "internalType": "string",
          "name": "_symbol",
          "type": "string"
        },
        {
          "internalType": "address",
          "name": "_admin",
          "type": "address"
        }
      ],
      "stateMutability": "nonpayable",
      "type": "constructor"
    },
    {
      "inputs": [],
      "name": "NFT_ContractIsPaused",
      "type": "error"
    },
    {
      "inputs": [],
      "name": "NFT_ExceededMaxMintAmountPerTx",
      "type": "error"
    },
    {
      "inputs": [],
      "name": "NFT_ExceededMaxNftPerAddress",
      "type": "error"
    },
    {
      "inputs": [],
      "name": "NFT_InsufficientFunds",
      "type": "error"
    },
    {
      "inputs": [],
      "name": "NFT_InvalidMintAmount",
      "type": "error"
    },
    {
      "inputs": [],
      "name": "NFT_MaxSupplyExceeded",
      "type": "error"
    },
    {
      "inputs": [
        {
          "internalType": "uint256",
          "name": "tokenId",
          "type": "uint256"
        }
      ],
      "name": "NFT_QueryForNonExistentToken",
      "type": "error"
    },
    {
      "anonymous": false,
      "inputs": [
        {
          "indexed": true,
          "internalType": "address",
          "name": "owner",
          "type": "address"
        },
        {
          "indexed": true,
          "internalType": "address",
          "name": "approved",
          "type": "address"
        },
        {
          "indexed": true,
          "internalType": "uint256",
          "name": "tokenId",
          "type": "uint256"
        }
      ],
      "name": "Approval",
      "type": "event"
    },
    {
      "anonymous": false,
      "inputs": [
        {
          "indexed": true,
          "internalType": "address",
          "name": "owner",
          "type": "address"
        },
        {
          "indexed": true,
          "internalType": "address",
          "name": "operator",
          "type": "address"
        },
        {
          "indexed": false,
          "internalType": "bool",
          "name": "approved",
          "type": "bool"
        }
      ],
      "name": "ApprovalForAll",
      "type": "event"
    },
    {
      "anonymous": false,
      "inputs": [
        {
          "indexed": true,
          "internalType": "address",
          "name": "previousOwner",
          "type": "address"
        },
        {
          "indexed": true,
          "internalType": "address",
          "name": "newOwner",
          "type": "address"
        }
      ],
      "name": "OwnershipTransferred",
      "type": "event"
    },
    {
      "anonymous": false,
      "inputs": [
        {
          "indexed": true,
          "internalType": "address",
          "name": "from",
          "type": "address"
        },
        {
          "indexed": true,
          "internalType": "address",
          "name": "to",
          "type": "address"
        },
        {
          "indexed": true,
          "internalType": "uint256",
          "name": "tokenId",
          "type": "uint256"
        }
      ],
      "name": "Transfer",
      "type": "event"
    },
    {
      "inputs": [
        {
          "internalType": "address",
          "name": "",
          "type": "address"
        }
      ],
      "name": "addressMintedBalance",
      "outputs": [
        {
          "internalType": "uint256",
          "name": "",
          "type": "uint256"
        }
      ],
      "stateMutability": "view",
      "type": "function"
    },
    {
      "inputs": [
        {
          "internalType": "address",
          "name": "to",
          "type": "address"
        },
        {
          "internalType": "uint256",
          "name": "tokenId",
          "type": "uint256"
        }
      ],
      "name": "approve",
      "outputs": [],
      "stateMutability": "nonpayable",
      "type": "function"
    },
    {
      "inputs": [
        {
          "internalType": "address",
          "name": "owner",
          "type": "address"
        }
      ],
      "name": "balanceOf",
      "outputs": [
        {
          "internalType": "uint256",
          "name": "",
          "type": "uint256"
        }
      ],
      "stateMutability": "view",
      "type": "function"
    },
    {
      "inputs": [
        {
          "internalType": "address",
          "name": "",
          "type": "address"
        }
      ],
      "name": "balances",
      "outputs": [
        {
          "internalType": "uint256",
          "name": "",
          "type": "uint256"
        }
      ],
      "stateMutability": "view",
      "type": "function"
    },
    {
      "inputs": [],
      "name": "baseExtension",
      "outputs": [
        {
          "internalType": "string",
          "name": "",
          "type": "string"
        }
      ],
      "stateMutability": "view",
      "type": "function"
    },
    {
      "inputs": [],
      "name": "baseURI",
      "outputs": [
        {
          "internalType": "string",
          "name": "",
          "type": "string"
        }
      ],
      "stateMutability": "view",
      "type": "function"
    },
    {
      "inputs": [
        {
          "internalType": "uint256",
          "name": "tokenId",
          "type": "uint256"
        }
      ],
      "name": "getApproved",
      "outputs": [
        {
          "internalType": "address",
          "name": "",
          "type": "address"
        }
      ],
      "stateMutability": "view",
      "type": "function"
    },
    {
      "inputs": [],
      "name": "getBalance",
      "outputs": [
        {
          "internalType": "uint256",
          "name": "",
          "type": "uint256"
        }
      ],
      "stateMutability": "view",
      "type": "function"
    },
    {
      "inputs": [
        {
          "internalType": "address",
          "name": "owner",
          "type": "address"
        },
        {
          "internalType": "address",
          "name": "operator",
          "type": "address"
        }
      ],
      "name": "isApprovedForAll",
      "outputs": [
        {
          "internalType": "bool",
          "name": "",
          "type": "bool"
        }
      ],
      "stateMutability": "view",
      "type": "function"
    },
    {
      "inputs": [],
      "name": "maxMintAmountPerTx",
      "outputs": [
        {
          "internalType": "uint256",
          "name": "",
          "type": "uint256"
        }
      ],
      "stateMutability": "view",
      "type": "function"
    },
    {
      "inputs": [],
      "name": "maxSupply",
      "outputs": [
        {
          "internalType": "uint256",
          "name": "",
          "type": "uint256"
        }
      ],
      "stateMutability": "view",
      "type": "function"
    },
    {
      "inputs": [
        {
          "internalType": "uint256",
          "name": "_mintAmount",
          "type": "uint256"
        },
        {
          "internalType": "bool",
          "name": "_isOg",
          "type": "bool"
        },
        {
          "internalType": "bool",
          "name": "_isWhitelisted",
          "type": "bool"
        }
      ],
      "name": "mint",
      "outputs": [],
      "stateMutability": "payable",
      "type": "function"
    },
    {
      "inputs": [],
      "name": "name",
      "outputs": [
        {
          "internalType": "string",
          "name": "",
          "type": "string"
        }
      ],
      "stateMutability": "view",
      "type": "function"
    },
    {
      "inputs": [],
      "name": "nftPerAddressLimit",
      "outputs": [
        {
          "internalType": "uint256",
          "name": "",
          "type": "uint256"
        }
      ],
      "stateMutability": "view",
      "type": "function"
    },
    {
      "inputs": [],
      "name": "ogUserCost",
      "outputs": [
        {
          "internalType": "uint256",
          "name": "",
          "type": "uint256"
        }
      ],
      "stateMutability": "view",
      "type": "function"
    },
    {
      "inputs": [],
      "name": "owner",
      "outputs": [
        {
          "internalType": "address",
          "name": "",
          "type": "address"
        }
      ],
      "stateMutability": "view",
      "type": "function"
    },
    {
      "inputs": [
        {
          "internalType": "uint256",
          "name": "tokenId",
          "type": "uint256"
        }
      ],
      "name": "ownerOf",
      "outputs": [
        {
          "internalType": "address",
          "name": "",
          "type": "address"
        }
      ],
      "stateMutability": "view",
      "type": "function"
    },
    {
      "inputs": [
        {
          "internalType": "bool",
          "name": "_state",
          "type": "bool"
        }
      ],
      "name": "pause",
      "outputs": [],
      "stateMutability": "payable",
      "type": "function"
    },
    {
      "inputs": [],
      "name": "paused",
      "outputs": [
        {
          "internalType": "bool",
          "name": "",
          "type": "bool"
        }
      ],
      "stateMutability": "view",
      "type": "function"
    },
    {
      "inputs": [],
      "name": "renounceOwnership",
      "outputs": [],
      "stateMutability": "nonpayable",
      "type": "function"
    },
    {
      "inputs": [],
      "name": "revealed",
      "outputs": [
        {
          "internalType": "bool",
          "name": "",
          "type": "bool"
        }
      ],
      "stateMutability": "view",
      "type": "function"
    },
    {
      "inputs": [
        {
          "internalType": "address",
          "name": "from",
          "type": "address"
        },
        {
          "internalType": "address",
          "name": "to",
          "type": "address"
        },
        {
          "internalType": "uint256",
          "name": "tokenId",
          "type": "uint256"
        }
      ],
      "name": "safeTransferFrom",
      "outputs": [],
      "stateMutability": "nonpayable",
      "type": "function"
    },
    {
      "inputs": [
        {
          "internalType": "address",
          "name": "from",
          "type": "address"
        },
        {
          "internalType": "address",
          "name": "to",
          "type": "address"
        },
        {
          "internalType": "uint256",
          "name": "tokenId",
          "type": "uint256"
        },
        {
          "internalType": "bytes",
          "name": "data",
          "type": "bytes"
        }
      ],
      "name": "safeTransferFrom",
      "outputs": [],
      "stateMutability": "nonpayable",
      "type": "function"
    },
    {
      "inputs": [
        {
          "internalType": "address",
          "name": "_address",
          "type": "address"
        }
      ],
      "name": "setAdmin",
      "outputs": [],
      "stateMutability": "nonpayable",
      "type": "function"
    },
    {
      "inputs": [
        {
          "internalType": "address",
          "name": "operator",
          "type": "address"
        },
        {
          "internalType": "bool",
          "name": "approved",
          "type": "bool"
        }
      ],
      "name": "setApprovalForAll",
      "outputs": [],
      "stateMutability": "nonpayable",
      "type": "function"
    },
    {
      "inputs": [
        {
          "internalType": "string",
          "name": "_newBaseURI",
          "type": "string"
        }
      ],
      "name": "setBaseURI",
      "outputs": [],
      "stateMutability": "payable",
      "type": "function"
    },
    {
      "inputs": [
        {
          "internalType": "bytes4",
          "name": "interfaceId",
          "type": "bytes4"
        }
      ],
      "name": "supportsInterface",
      "outputs": [
        {
          "internalType": "bool",
          "name": "",
          "type": "bool"
        }
      ],
      "stateMutability": "view",
      "type": "function"
    },
    {
      "inputs": [],
      "name": "symbol",
      "outputs": [
        {
          "internalType": "string",
          "name": "",
          "type": "string"
        }
      ],
      "stateMutability": "view",
      "type": "function"
    },
    {
      "inputs": [
        {
          "internalType": "uint256",
          "name": "index",
          "type": "uint256"
        }
      ],
      "name": "tokenByIndex",
      "outputs": [
        {
          "internalType": "uint256",
          "name": "",
          "type": "uint256"
        }
      ],
      "stateMutability": "view",
      "type": "function"
    },
    {
      "inputs": [
        {
          "internalType": "address",
          "name": "owner",
          "type": "address"
        },
        {
          "internalType": "uint256",
          "name": "index",
          "type": "uint256"
        }
      ],
      "name": "tokenOfOwnerByIndex",
      "outputs": [
        {
          "internalType": "uint256",
          "name": "",
          "type": "uint256"
        }
      ],
      "stateMutability": "view",
      "type": "function"
    },
    {
      "inputs": [
        {
          "internalType": "uint256",
          "name": "tokenId",
          "type": "uint256"
        }
      ],
      "name": "tokenURI",
      "outputs": [
        {
          "internalType": "string",
          "name": "",
          "type": "string"
        }
      ],
      "stateMutability": "view",
      "type": "function"
    },
    {
      "inputs": [],
      "name": "totalBalance",
      "outputs": [
        {
          "internalType": "uint256",
          "name": "",
          "type": "uint256"
        }
      ],
      "stateMutability": "view",
      "type": "function"
    },
    {
      "inputs": [],
      "name": "totalSupply",
      "outputs": [
        {
          "internalType": "uint256",
          "name": "",
          "type": "uint256"
        }
      ],
      "stateMutability": "view",
      "type": "function"
    },
    {
      "inputs": [
        {
          "internalType": "address",
          "name": "from",
          "type": "address"
        },
        {
          "internalType": "address",
          "name": "to",
          "type": "address"
        },
        {
          "internalType": "uint256",
          "name": "tokenId",
          "type": "uint256"
        }
      ],
      "name": "transferFrom",
      "outputs": [],
      "stateMutability": "nonpayable",
      "type": "function"
    },
    {
      "inputs": [
        {
          "internalType": "address",
          "name": "newOwner",
          "type": "address"
        }
      ],
      "name": "transferOwnership",
      "outputs": [],
      "stateMutability": "nonpayable",
      "type": "function"
    },
    {
      "inputs": [
        {
          "internalType": "address",
          "name": "_owner",
          "type": "address"
        }
      ],
      "name": "walletOfOwner",
      "outputs": [
        {
          "internalType": "uint256[]",
          "name": "",
          "type": "uint256[]"
        }
      ],
      "stateMutability": "view",
      "type": "function"
    },
    {
      "inputs": [],
      "name": "whitelistMintEnabled",
      "outputs": [
        {
          "internalType": "bool",
          "name": "",
          "type": "bool"
        }
      ],
      "stateMutability": "view",
      "type": "function"
    },
    {
      "inputs": [],
      "name": "whitelistUserCost",
      "outputs": [
        {
          "internalType": "uint256",
          "name": "",
          "type": "uint256"
        }
      ],
      "stateMutability": "view",
      "type": "function"
    },
    {
      "inputs": [],
      "name": "withdraw",
      "outputs": [],
      "stateMutability": "payable",
      "type": "function"
    }
  ],
  "bytecode": "0x61010060405260516080818152906200283b60a03980516200002a91600c916020909101906200018a565b5060408051808201909152600580825264173539b7b760d91b60209092019182526200005991600d916200018a565b50611518600e55665fec5b60ef8000600f5566670758aa7c8000601055600260118190556012556013805461ffff19166101001790553480156200009c57600080fd5b506040516200288c3803806200288c833981016040819052620000bf91620002fd565b825183908390620000d89060009060208501906200018a565b508051620000ee9060019060208401906200018a565b5050506200010b620001056200013460201b60201c565b62000138565b600b80546001600160a01b0319166001600160a01b039290921691909117905550620003c79050565b3390565b600a80546001600160a01b038381166001600160a01b0319831681179093556040519116919082907f8be0079c531659141344cd1fd0a4f28419497f9722a3daafe3b4186f6b6457e090600090a35050565b82805462000198906200038a565b90600052602060002090601f016020900481019282620001bc576000855562000207565b82601f10620001d757805160ff191683800117855562000207565b8280016001018555821562000207579182015b8281111562000207578251825591602001919060010190620001ea565b506200021592915062000219565b5090565b5b808211156200021557600081556001016200021a565b634e487b7160e01b600052604160045260246000fd5b600082601f8301126200025857600080fd5b81516001600160401b038082111562000275576200027562000230565b604051601f8301601f19908116603f01168101908282118183101715620002a057620002a062000230565b81604052838152602092508683858801011115620002bd57600080fd5b600091505b83821015620002e15785820183015181830184015290820190620002c2565b83821115620002f35760008385830101525b9695505050505050565b6000806000606084860312156200031357600080fd5b83516001600160401b03808211156200032b57600080fd5b620003398783880162000246565b945060208601519150808211156200035057600080fd5b506200035f8682870162000246565b604086015190935090506001600160a01b03811681146200037f57600080fd5b809150509250925092565b600181811c908216806200039f57607f821691505b60208210811415620003c157634e487b7160e01b600052602260045260246000fd5b50919050565b61246480620003d76000396000f3fe6080604052600436106102305760003560e01c80636352211e1161012e578063ad7a672f116100ab578063c89e9bec1161006f578063c89e9bec1461063c578063cdf7b4e814610652578063d5abeb0114610665578063e985e9c51461067b578063f2fde38b146106c457600080fd5b8063ad7a672f146105be578063b88d4fde146105d1578063ba7d2c76146105f1578063c668286214610607578063c87b56dd1461061c57600080fd5b8063715018a6116100f2578063715018a6146105405780638da5cb5b1461055557806394354fd01461057357806395d89b4114610589578063a22cb4651461059e57600080fd5b80636352211e146104ab5780636c0360eb146104cb5780636caede3d146104e0578063704b6c021461050057806370a082311461052057600080fd5b806327e235e3116101bc578063438b630011610180578063438b6300146104125780634f6ccce71461043f578063518302271461045f57806355f804b31461047e5780635c975abb1461049157600080fd5b806327e235e3146103875780632f745c59146103b457806333ee5dd4146103d45780633ccfd60b146103ea57806342842e0e146103f257600080fd5b8063095ea7b311610203578063095ea7b3146102d957806312065fe0146102f957806318160ddd1461032557806318cae2691461033a57806323b872dd1461036757600080fd5b806301ffc9a71461023557806302329a291461026a57806306fdde031461027f578063081812fc146102a1575b600080fd5b34801561024157600080fd5b50610255610250366004611dca565b6106e4565b60405190151581526020015b60405180910390f35b61027d610278366004611dfc565b61070f565b005b34801561028b57600080fd5b5061029461072a565b6040516102619190611e6f565b3480156102ad57600080fd5b506102c16102bc366004611e82565b6107bc565b6040516001600160a01b039091168152602001610261565b3480156102e557600080fd5b5061027d6102f4366004611eb2565b6107e3565b34801561030557600080fd5b50336000908152601560205260409020545b604051908152602001610261565b34801561033157600080fd5b50600854610317565b34801561034657600080fd5b50610317610355366004611edc565b60146020526000908152604090205481565b34801561037357600080fd5b5061027d610382366004611ef7565b6108fe565b34801561039357600080fd5b506103176103a2366004611edc565b60156020526000908152604090205481565b3480156103c057600080fd5b506103176103cf366004611eb2565b61092f565b3480156103e057600080fd5b5061031760105481565b61027d6109c5565b3480156103fe57600080fd5b5061027d61040d366004611ef7565b610a6d565b34801561041e57600080fd5b5061043261042d366004611edc565b610a88565b6040516102619190611f33565b34801561044b57600080fd5b5061031761045a366004611e82565b610b20565b34801561046b57600080fd5b5060135461025590610100900460ff1681565b61027d61048c366004612003565b610bb3565b34801561049d57600080fd5b506013546102559060ff1681565b3480156104b757600080fd5b506102c16104c6366004611e82565b610bd2565b3480156104d757600080fd5b50610294610c32565b3480156104ec57600080fd5b506013546102559062010000900460ff1681565b34801561050c57600080fd5b5061027d61051b366004611edc565b610cc0565b34801561052c57600080fd5b5061031761053b366004611edc565b610cea565b34801561054c57600080fd5b5061027d610d70565b34801561056157600080fd5b50600a546001600160a01b03166102c1565b34801561057f57600080fd5b5061031760115481565b34801561059557600080fd5b50610294610d84565b3480156105aa57600080fd5b5061027d6105b936600461204c565b610d93565b3480156105ca57600080fd5b5047610317565b3480156105dd57600080fd5b5061027d6105ec36600461207f565b610d9e565b3480156105fd57600080fd5b5061031760125481565b34801561061357600080fd5b50610294610dd6565b34801561062857600080fd5b50610294610637366004611e82565b610de3565b34801561064857600080fd5b50610317600f5481565b61027d6106603660046120fb565b610e7d565b34801561067157600080fd5b50610317600e5481565b34801561068757600080fd5b50610255610696366004612137565b6001600160a01b03918216600090815260056020908152604080832093909416825291909152205460ff1690565b3480156106d057600080fd5b5061027d6106df366004611edc565b611023565b60006001600160e01b0319821663780e9d6360e01b1480610709575061070982611099565b92915050565b6107176110e9565b6013805460ff1916911515919091179055565b60606000805461073990612161565b80601f016020809104026020016040519081016040528092919081815260200182805461076590612161565b80156107b25780601f10610787576101008083540402835291602001916107b2565b820191906000526020600020905b81548152906001019060200180831161079557829003601f168201915b5050505050905090565b60006107c782611143565b506000908152600460205260409020546001600160a01b031690565b60006107ee82610bd2565b9050806001600160a01b0316836001600160a01b031614156108615760405162461bcd60e51b815260206004820152602160248201527f4552433732313a20617070726f76616c20746f2063757272656e74206f776e656044820152603960f91b60648201526084015b60405180910390fd5b336001600160a01b038216148061087d575061087d8133610696565b6108ef5760405162461bcd60e51b815260206004820152603d60248201527f4552433732313a20617070726f76652063616c6c6572206973206e6f7420746f60448201527f6b656e206f776e6572206f7220617070726f76656420666f7220616c6c0000006064820152608401610858565b6108f983836111a2565b505050565b6109083382611210565b6109245760405162461bcd60e51b81526004016108589061219c565b6108f983838361128f565b600061093a83610cea565b821061099c5760405162461bcd60e51b815260206004820152602b60248201527f455243373231456e756d657261626c653a206f776e657220696e646578206f7560448201526a74206f6620626f756e647360a81b6064820152608401610858565b506001600160a01b03919091166000908152600660209081526040808320938352929052205490565b600a546001600160a01b03163314806109e85750600b546001600160a01b031633145b610a3e5760405162461bcd60e51b815260206004820152602160248201527f4f6e6c79206f776e65722063616e2063616c6c20746869732066756e6374696f6044820152603760f91b6064820152608401610858565b60405133904780156108fc02916000818181858888f19350505050158015610a6a573d6000803e3d6000fd5b50565b6108f983838360405180602001604052806000815250610d9e565b60606000610a9583610cea565b905060008167ffffffffffffffff811115610ab257610ab2611f77565b604051908082528060200260200182016040528015610adb578160200160208202803683370190505b50905060005b82811015610b1857610af3858261092f565b828281518110610b0557610b056121e9565b6020908102919091010152600101610ae1565b509392505050565b6000610b2b60085490565b8210610b8e5760405162461bcd60e51b815260206004820152602c60248201527f455243373231456e756d657261626c653a20676c6f62616c20696e646578206f60448201526b7574206f6620626f756e647360a01b6064820152608401610858565b60088281548110610ba157610ba16121e9565b90600052602060002001549050919050565b610bbb6110e9565b8051610bce90600c906020840190611d1b565b5050565b6000818152600260205260408120546001600160a01b0316806107095760405162461bcd60e51b8152602060048201526018602482015277115490cdcc8c4e881a5b9d985b1a59081d1bdad95b88125160421b6044820152606401610858565b600c8054610c3f90612161565b80601f0160208091040260200160405190810160405280929190818152602001828054610c6b90612161565b8015610cb85780601f10610c8d57610100808354040283529160200191610cb8565b820191906000526020600020905b815481529060010190602001808311610c9b57829003601f168201915b505050505081565b610cc86110e9565b600b80546001600160a01b0319166001600160a01b0392909216919091179055565b60006001600160a01b038216610d545760405162461bcd60e51b815260206004820152602960248201527f4552433732313a2061646472657373207a65726f206973206e6f7420612076616044820152683634b21037bbb732b960b91b6064820152608401610858565b506001600160a01b031660009081526003602052604090205490565b610d786110e9565b610d826000611400565b565b60606001805461073990612161565b610bce338383611452565b610da83383611210565b610dc45760405162461bcd60e51b81526004016108589061219c565b610dd084848484611521565b50505050565b600d8054610c3f90612161565b6000818152600260205260409020546060906001600160a01b0316610e1e5760405163350cbe8560e11b815260048101839052602401610858565b6000610e28611554565b90506000815111610e485760405180602001604052806000815250610e76565b80610e5284611563565b600d604051602001610e66939291906121ff565b6040516020818303038152906040525b9392505050565b60135460ff1615610ea15760405163dcbe88e360e01b815260040160405180910390fd5b82610ebf57604051630f1092d160e11b815260040160405180910390fd5b601154831115610ee25760405163d6350ba360e01b815260040160405180910390fd5b6000610eed60085490565b600e54909150610efd85836122d9565b1115610f1c5760405163656a44e360e01b815260040160405180910390fd5b6000610f30600a546001600160a01b031690565b6001600160a01b0316336001600160a01b031614610ff65760018415151415610f5c5750600f54610f61565b506010545b610f6b85826122f1565b341015610f8b576040516315ff4aa760e01b815260040160405180910390fd5b33600090815260146020526040902054601254610fa887836122d9565b118015610fc3575060018515151480610fc357506001841515145b15610fe1576040516313c0abeb60e11b815260040160405180910390fd5b33600090815260146020526040902090860190555b60015b85811161101b576110133361100e83866122d9565b6115f8565b600101610ff9565b505050505050565b61102b6110e9565b6001600160a01b0381166110905760405162461bcd60e51b815260206004820152602660248201527f4f776e61626c653a206e6577206f776e657220697320746865207a65726f206160448201526564647265737360d01b6064820152608401610858565b610a6a81611400565b60006001600160e01b031982166380ac58cd60e01b14806110ca57506001600160e01b03198216635b5e139f60e01b145b8061070957506301ffc9a760e01b6001600160e01b0319831614610709565b600a546001600160a01b03163314610d825760405162461bcd60e51b815260206004820181905260248201527f4f776e61626c653a2063616c6c6572206973206e6f7420746865206f776e65726044820152606401610858565b6000818152600260205260409020546001600160a01b0316610a6a5760405162461bcd60e51b8152602060048201526018602482015277115490cdcc8c4e881a5b9d985b1a59081d1bdad95b88125160421b6044820152606401610858565b600081815260046020526040902080546001600160a01b0319166001600160a01b03841690811790915581906111d782610bd2565b6001600160a01b03167f8c5be1e5ebec7d5bd14f71427d1e84f3dd0314c0f7b2291e5b200ac8c7c3b92560405160405180910390a45050565b60008061121c83610bd2565b9050806001600160a01b0316846001600160a01b0316148061126357506001600160a01b0380821660009081526005602090815260408083209388168352929052205460ff165b806112875750836001600160a01b031661127c846107bc565b6001600160a01b0316145b949350505050565b826001600160a01b03166112a282610bd2565b6001600160a01b0316146112c85760405162461bcd60e51b815260040161085890612310565b6001600160a01b03821661132a5760405162461bcd60e51b8152602060048201526024808201527f4552433732313a207472616e7366657220746f20746865207a65726f206164646044820152637265737360e01b6064820152608401610858565b6113378383836001611612565b826001600160a01b031661134a82610bd2565b6001600160a01b0316146113705760405162461bcd60e51b815260040161085890612310565b600081815260046020908152604080832080546001600160a01b03199081169091556001600160a01b0387811680865260038552838620805460001901905590871680865283862080546001019055868652600290945282852080549092168417909155905184937fddf252ad1be2c89b69c2b068fc378daa952ba7f163c4a11628f55a4df523b3ef91a4505050565b600a80546001600160a01b038381166001600160a01b0319831681179093556040519116919082907f8be0079c531659141344cd1fd0a4f28419497f9722a3daafe3b4186f6b6457e090600090a35050565b816001600160a01b0316836001600160a01b031614156114b45760405162461bcd60e51b815260206004820152601960248201527f4552433732313a20617070726f766520746f2063616c6c6572000000000000006044820152606401610858565b6001600160a01b03838116600081815260056020908152604080832094871680845294825291829020805460ff191686151590811790915591519182527f17307eab39ab6107e8899845ad3d59bd9653f200f220920489ca2b5937696c31910160405180910390a3505050565b61152c84848461128f565b61153884848484611752565b610dd05760405162461bcd60e51b815260040161085890612355565b6060600c805461073990612161565b606060006115708361185f565b600101905060008167ffffffffffffffff81111561159057611590611f77565b6040519080825280601f01601f1916602001820160405280156115ba576020820181803683370190505b5090508181016020015b600019016f181899199a1a9b1b9c1cb0b131b232b360811b600a86061a8153600a85049450846115f357610b18565b6115c4565b610bce828260405180602001604052806000815250611937565b61161e8484848461196a565b600181111561168d5760405162461bcd60e51b815260206004820152603560248201527f455243373231456e756d657261626c653a20636f6e7365637574697665207472604482015274185b9cd9995c9cc81b9bdd081cdd5c1c1bdc9d1959605a1b6064820152608401610858565b816001600160a01b0385166116e9576116e481600880546000838152600960205260408120829055600182018355919091527ff3f7a9fe364faab93b216da50a3214154f22a0a2b415b23a84c8169e8b636ee30155565b61170c565b836001600160a01b0316856001600160a01b03161461170c5761170c85826119f2565b6001600160a01b0384166117285761172381611a8f565b61174b565b846001600160a01b0316846001600160a01b03161461174b5761174b8482611b3e565b5050505050565b60006001600160a01b0384163b1561185457604051630a85bd0160e11b81526001600160a01b0385169063150b7a02906117969033908990889088906004016123a7565b602060405180830381600087803b1580156117b057600080fd5b505af19250505080156117e0575060408051601f3d908101601f191682019092526117dd918101906123e4565b60015b61183a573d80801561180e576040519150601f19603f3d011682016040523d82523d6000602084013e611813565b606091505b5080516118325760405162461bcd60e51b815260040161085890612355565b805181602001fd5b6001600160e01b031916630a85bd0160e11b149050611287565b506001949350505050565b60008072184f03e93ff9f4daa797ed6e38ed64bf6a1f0160401b831061189e5772184f03e93ff9f4daa797ed6e38ed64bf6a1f0160401b830492506040015b6d04ee2d6d415b85acef810000000083106118ca576d04ee2d6d415b85acef8100000000830492506020015b662386f26fc1000083106118e857662386f26fc10000830492506010015b6305f5e1008310611900576305f5e100830492506008015b612710831061191457612710830492506004015b60648310611926576064830492506002015b600a83106107095760010192915050565b6119418383611b82565b61194e6000848484611752565b6108f95760405162461bcd60e51b815260040161085890612355565b6001811115610dd0576001600160a01b038416156119b0576001600160a01b038416600090815260036020526040812080548392906119aa908490612401565b90915550505b6001600160a01b03831615610dd0576001600160a01b038316600090815260036020526040812080548392906119e79084906122d9565b909155505050505050565b600060016119ff84610cea565b611a099190612401565b600083815260076020526040902054909150808214611a5c576001600160a01b03841660009081526006602090815260408083208584528252808320548484528184208190558352600790915290208190555b5060009182526007602090815260408084208490556001600160a01b039094168352600681528383209183525290812055565b600854600090611aa190600190612401565b60008381526009602052604081205460088054939450909284908110611ac957611ac96121e9565b906000526020600020015490508060088381548110611aea57611aea6121e9565b6000918252602080832090910192909255828152600990915260408082208490558582528120556008805480611b2257611b22612418565b6001900381819060005260206000200160009055905550505050565b6000611b4983610cea565b6001600160a01b039093166000908152600660209081526040808320868452825280832085905593825260079052919091209190915550565b6001600160a01b038216611bd85760405162461bcd60e51b815260206004820181905260248201527f4552433732313a206d696e7420746f20746865207a65726f20616464726573736044820152606401610858565b6000818152600260205260409020546001600160a01b031615611c3d5760405162461bcd60e51b815260206004820152601c60248201527f4552433732313a20746f6b656e20616c7265616479206d696e746564000000006044820152606401610858565b611c4b600083836001611612565b6000818152600260205260409020546001600160a01b031615611cb05760405162461bcd60e51b815260206004820152601c60248201527f4552433732313a20746f6b656e20616c7265616479206d696e746564000000006044820152606401610858565b6001600160a01b038216600081815260036020908152604080832080546001019055848352600290915280822080546001600160a01b0319168417905551839291907fddf252ad1be2c89b69c2b068fc378daa952ba7f163c4a11628f55a4df523b3ef908290a45050565b828054611d2790612161565b90600052602060002090601f016020900481019282611d495760008555611d8f565b82601f10611d6257805160ff1916838001178555611d8f565b82800160010185558215611d8f579182015b82811115611d8f578251825591602001919060010190611d74565b50611d9b929150611d9f565b5090565b5b80821115611d9b5760008155600101611da0565b6001600160e01b031981168114610a6a57600080fd5b600060208284031215611ddc57600080fd5b8135610e7681611db4565b80358015158114611df757600080fd5b919050565b600060208284031215611e0e57600080fd5b610e7682611de7565b60005b83811015611e32578181015183820152602001611e1a565b83811115610dd05750506000910152565b60008151808452611e5b816020860160208601611e17565b601f01601f19169290920160200192915050565b602081526000610e766020830184611e43565b600060208284031215611e9457600080fd5b5035919050565b80356001600160a01b0381168114611df757600080fd5b60008060408385031215611ec557600080fd5b611ece83611e9b565b946020939093013593505050565b600060208284031215611eee57600080fd5b610e7682611e9b565b600080600060608486031215611f0c57600080fd5b611f1584611e9b565b9250611f2360208501611e9b565b9150604084013590509250925092565b6020808252825182820181905260009190848201906040850190845b81811015611f6b57835183529284019291840191600101611f4f565b50909695505050505050565b634e487b7160e01b600052604160045260246000fd5b600067ffffffffffffffff80841115611fa857611fa8611f77565b604051601f8501601f19908116603f01168101908282118183101715611fd057611fd0611f77565b81604052809350858152868686011115611fe957600080fd5b858560208301376000602087830101525050509392505050565b60006020828403121561201557600080fd5b813567ffffffffffffffff81111561202c57600080fd5b8201601f8101841361203d57600080fd5b61128784823560208401611f8d565b6000806040838503121561205f57600080fd5b61206883611e9b565b915061207660208401611de7565b90509250929050565b6000806000806080858703121561209557600080fd5b61209e85611e9b565b93506120ac60208601611e9b565b925060408501359150606085013567ffffffffffffffff8111156120cf57600080fd5b8501601f810187136120e057600080fd5b6120ef87823560208401611f8d565b91505092959194509250565b60008060006060848603121561211057600080fd5b8335925061212060208501611de7565b915061212e60408501611de7565b90509250925092565b6000806040838503121561214a57600080fd5b61215383611e9b565b915061207660208401611e9b565b600181811c9082168061217557607f821691505b6020821081141561219657634e487b7160e01b600052602260045260246000fd5b50919050565b6020808252602d908201527f4552433732313a2063616c6c6572206973206e6f7420746f6b656e206f776e6560408201526c1c881bdc88185c1c1c9bdd9959609a1b606082015260800190565b634e487b7160e01b600052603260045260246000fd5b6000845160206122128285838a01611e17565b8551918401916122258184848a01611e17565b8554920191600090600181811c908083168061224257607f831692505b85831081141561226057634e487b7160e01b85526022600452602485fd5b8080156122745760018114612285576122b2565b60ff198516885283880195506122b2565b60008b81526020902060005b858110156122aa5781548a820152908401908801612291565b505083880195505b50939b9a5050505050505050505050565b634e487b7160e01b600052601160045260246000fd5b600082198211156122ec576122ec6122c3565b500190565b600081600019048311821515161561230b5761230b6122c3565b500290565b60208082526025908201527f4552433732313a207472616e736665722066726f6d20696e636f72726563742060408201526437bbb732b960d91b606082015260800190565b60208082526032908201527f4552433732313a207472616e7366657220746f206e6f6e20455243373231526560408201527131b2b4bb32b91034b6b83632b6b2b73a32b960711b606082015260800190565b6001600160a01b03858116825284166020820152604081018390526080606082018190526000906123da90830184611e43565b9695505050505050565b6000602082840312156123f657600080fd5b8151610e7681611db4565b600082821015612413576124136122c3565b500390565b634e487b7160e01b600052603160045260246000fdfea264697066735822122090cc99f6c417baedc1c09a87ce10dea3da5b50daf2fd8c62efaa81ba633502d264736f6c6343000809003368747470733a2f2f676174657761792e70696e6174612e636c6f75642f697066732f516d54487a4e6e5335756b6b6f414b4e517645476837595874646b59744c763251316f6268576b554871554878792f",
  "linkReferences": {},
  "deployedLinkReferences": {}
}